:10000000F3C2000029C3000027C3000025C300007D
:1000100023C3000021C300001FC300001DC3000054
:100020001BC3000019C300000C943C1E0C94F81D67
:100030000C94481F11C300000FC300000DC3000043
:100040000BC3000009C3000007C3000005C3000084
:1000500003C300000C94241FFFC20000FDC2000077
:10006000FBC20000F9C20000F7C20000F5C20000A8
:10007000F3C20000F1C20000EFC20000EDC20000B8
:10008000EBC20000E9C20000E7C20000E5C20000C8
:10009000E3C20000E1C20000DFC20000DDC20000D8
:1000A000DBC20000D9C20000D7C20000050109026E
:1000B000A10185020901A1000509190129081500FE
:1000C0002501950875018102050109300931158165
:1000D000257F95027508810609381581257F9501D0
:1000E00075088106050C0A38021581257F95017572
:1000F000088106C0C005010980A101850319012AF4
:10010000B700150126B700950175108100C0050CD8
:100110000901A101850419012AA002150126A002E6
:10012000950175108100C00660FF0961A101096297
:10013000150026FF00952075088102096315002629
:10014000FF00952075089102C005010906A101056F
:100150000719E029E7150025019508750181029529
:1001600001750881010507190029FF150026FF0008
:100170009506750881000508190129051500250156
:10018000950575019102950175039101C02F736961
:100190006465002F706574004C69737420636F6E22
:1001A00066696775726564204D4350207365727689
:1001B00065727320616E6420617661696C61626C46
:1001C0006520746F6F6C732E004C69737420696EB8
:1001D0007374616C6C656420736B696C6C73206103
:1001E0006E642077686174206561636820646F6560
:1001F000732E001E140A0500010101010101010115
:1002000001020202020202020202030303030303C9
:100210000303040404040404040505050505060697
:100220000606060707070707080808080909090955
:100230000A0A0A0B0B0B0C0C0C0D0D0D0E0E0E0FFB
:100240000F0F10101111111212131314141515168B
:10025000161717181819191A1A1B1B1C1D1D1E1EFC
:100260001F2020212222232424252626272829294D
:100270002A2B2C2D2D2E2F30313232333435363778
:1002800038393A3B3C3D3E3F404142434445464776
:1002900048494A4C4D4E4F50515354555658595A4F
:1002A0005B5D5E5F616264656668696B6C6D6F70F3
:1002B00072737577787A7B7D7E8082838587888A62
:1002C0008C8E8F91939596989A9C9EA0A2A3A5A799
:1002D000A9ABADAFB1B3B5B7BABCBEC0C2C4C6C995
:1002E000CBCDCFD1D4D6D8DBDDDFE2E4E7E9EBEE4E
:1002F000F0F3F5F8FAFDFF2223252628292A2C2DD4
:100300002F3032333536383A3B3D3E404243454745
:10031000494A4C4E5051535557595A5C5E6062647D
:100320006668696B6D6F71737577797B7D7F81838B
:100330008587898A8C8E90929496989A9C9E9FA18C
:10034000A3A5A7A8AAACAEAFB1B3B4B6B8B9BBBCAD
:10035000BEBFC1C2C3C5C6C7C9CACBCCCDCED0D122
:10036000D2D2D3D4D5D6D7D7D8D9D9DADADBDBDB1A
:10037000DCDCDCDCDCDDDDDDDDDCDCDCDCDCDBDBBB
:10038000DBDADAD9D9D8D7D7D6D5D4D3D2D2D1D00F
:10039000CECDCCCBCAC9C7C6C5C3C2C1BFBEBCBB0C
:1003A000B9B8B6B4B3B1AFAEACAAA8A7A5A3A19F84
:1003B0009E9C9A98969492908E8C8A898785838148
:1003C0007F7D7B79777573716F6D6B696866646229
:1003D000605E5C5A5957555351504E4C4A494745F7
:1003E0004342403E3D3B3A3836353332302F2D2C98
:1003F0002A292826252322170819001300477E0FD3
:1004000002150012000F00040419050B0507042053
:100410007809000600015200001108447E477E352D
:1004200001407E417E427E437E01000100010000CA
:10043000000E08130A0052170119001300477E0F1F
:1004400002150012000F00040419060B0607040031
:1004500000090006000352000001000100477E0170
:100460000001000100010010021600170008000042
:10047000001602060000522E002D001D081D0ADA8B
:1004800000D900467E457E010001001C011D0101CE
:100490000001000100010009025B00030100A0321D
:1004A00009040000010301010009211101000122DA
:1004B000440007058103080001090401000203004C
:1004C00000000921110100012222000705820320FA
:1004D00000010705030320000109040200010300D5
:1004E0000000092111010001227B0007058403207F
:1004F000000112010002000000084C57E3E6000171
:100500000102000114034D006900630072006F00D6
:1005100020005000610064000000180357006F00C5
:1005200072006B0020004C006F00750064006500D5
:100530007200000004030904000000000000000035
:1005400000000000000000000000000000000000AB
:100550000000000000000000000000007E0F00D43A
:10056000FFFFFFC70000007800000000000000004F
:100570002A2B2800000000000000000000000000FE
:1005800000000029000000002C1E34202122243409
:100590002627252E362D3738271E1F2021222324DB
:1005A00025263333362E37381F0405060708090A77
:1005B0000B0C0D0E0F101112131415161718191A13
:1005C0001B1C1D2F3130232D350405060708090A91
:1005D0000B0C0D0E0F101112131415161718191AF3
:1005E0001B1C1D2F3130354C11241FBECFEFDAE01C
:1005F000DEBFCDBF04B603FE18C08091F602909115
:10060000F702A091F802B091F9028730904BA74011
:10061000B04B59F41092F6021092F7021092F802C1
:100620001092F902E0E0F8E3099511E0A0E0B1E0F2
:10063000EAE0F1E502C005900D92A03CB107D9F7C0
:1006400022E0A0ECB1E001C01D92A63FB207E1F7A5
:100650000E946F1F0C943628D3CC9C018FB7F8945E
:10066000F901B4962E173F0711F48FBF0895D901F1
:100670009D919D0158E04BB9000000C097FF6BB9F8
:10068000990F000000C000C000C06BB900C05A95AF
:1006900091F7E8CFE091EC02F091ED02309739F05C
:1006A0000284F385E02D309711F060E209950895FA
:1006B000982FE091EB024091B20257E0E41302C0A0
:1006C00080E008952E2F30E05E9FF0011124ED545C
:1006D000FD4F8181681306C08081981303C0858116
:1006E0008111EFCFF9013196E770E8CFE8EDF0E046
:1006F00080818E7F80831092E2001092DA00109247
:10070000E100A0EEB0E08C9181608C9380818F77C6
:10071000808319BCA7EDB0E08C918E7F8C93808193
:100720008F7E808310929C0208952091E400309186
:10073000E50095E6A9012091EC00822F817020FF51
:1007400006C08091E80080FF06C080E008952091F7
:10075000E80022FD1AC08091A802882389F0853024
:1007600089F08091EB0085FD0FC02091E40030916D
:10077000E50042175307F9F29150E1F684E008953D
:1007800082E0089583E0089581E008958091AA02AF
:1007900087FF13C08091E80082FF06C08091E800C7
:1007A0008B778093E80004C08091A8028111F2CF7A
:1007B00008958091A8028823D9F38091E80080FFF2
:1007C000F8CF8091E8008E77ECCF982F9093E900D6
:1007D000242F762F50E0891731F07091EC00209192
:1007E000ED005091F00021FD07C09F5F973071F739
:1007F0008093E90081E008953091EB003E7F3093D3
:10080000EB003091ED003D7F3093ED003091EB0037
:1008100031603093EB007093EC002093ED00509327
:10082000F0002091EE0027FDE0CF80E00895B0E0D9
:10083000A0E0EDE1F4E00C946A27C8EDD0E08881F7
:100840008F7E8883E7EDF0E080818160808384E0A3
:1008500082BF81E080939C0288818E7F888302EE34
:1008600010E0F80110821092DA0081EEC82ED12C2F
:10087000F601108288818F778883888180688883D9
:1008800088818F7D888319BC1092A8021092A902DA
:100890001092A7021092A60290EEE92EF12CF70119
:1008A00080818B7F808388818160888342E060E0E3
:1008B00080E08BDFF60180818E7F8083F80180816C
:1008C00081608083808188608083F70180818E7F52
:1008D0008083888180618883CDB7DEB7E8E00C949F
:1008E0008627FC01CB012091B0023091B10226177E
:1008F000370790F0009729F42091E8002E77209395
:10090000E80040E0009751F4411108C08091E800F0
:1009100082FF31C080E00895C901F3CF2091A80281
:100920002223A9F12530A9F12091E80023FD2DC053
:100930002091E80022FDEACF2091E80020FFE2CFDD
:100940003091F3002091F200009719F02830310522
:1009500058F041E02830310509F040E02091E800EE
:100960002E772093E800CECF41914093F10001977C
:100970002F5F3F4FE9CF8091A802882341F0853057
:1009800041F08091E80083FFC1CF81E0089582E0CB
:10099000089583E0089508950895A4E0B0E0E3ED9C
:1009A000F4E00C9470278FB7F8942091980230915E
:1009B000990240919A0250919B0229833A834B837A
:1009C0005C838FBF69817A818B819C812496E2E070
:1009D0000C948C272FB7F8948091980290919902EB
:1009E000A0919A02B0919B022FBF089580911401AB
:1009F0000895A3E0B0E0EFEFF4E00C9470279C01C1
:100A0000809195029091960282179307B1F03093EE
:100A1000960220939502E091EC02F091ED0230975E
:100A200061F00084F185E02D309739F084E089830E
:100A30003B832A83CE01019609952396E2E00C942C
:100A40008C27A3E0B0E0E7E2F5E00C9470279C016E
:100A5000809193029091940282179307B1F03093A2
:100A6000940220939302E091EC02F091ED02309712
:100A700061F00084F185E02D309739F083E08983BF
:100A80003B832A83CE01019609952396E2E00C94DC
:100A90008C27E091EC02F091ED02309739F0019053
:100AA000F081E02D309711F00995089580E00895C8
:100AB000DC01ED91FC91119784913196ED93FC93BB
:100AC000089588DF20918F0230919002232B21F02E
:100AD00080938B0290938C0220919102309192022C
:100AE000232B21F08093890290938A02E091EC02FB
:100AF000F091ED02309759F00680F781E02D3097A4
:100B000031F082E080938D028DE892E0099508959E
:100B10008091880280FD16C081FD16C082FD16C03E
:100B2000809187028823A1F0883280F428E0829F98
:100B3000C001112468E270E00E943127862F672BE4
:100B400039F0089582E0089584E0089588E00895DA
:100B500081E008958091880280FD14C081FD14C059
:100B600082FD16C080918602882381F08E3180F448
:100B700020E5829FC00111246EE170E00E943127C0
:100B8000862F089584E1089588E2089588E0089505
:100B900080E50895282F35EB2303C001112497FF2A
:100BA00004C080589109892F089580589F4FFBCF2A
:100BB000FC01EE0FFF1FE80FF91FEE59FD4F618397
:100BC000408322830895E2E6F2E0818360834283DA
:100BD000339692E0E638F907C1F70895519A0895DF
:100BE00090E06623A1F082559E4FFC0120812F3FAB
:100BF00089F0E22FE295EF70F0E080A190E02F7095
:100C000002C0959587952A95E2F7817008958455DD
:100C10009E4FEBCF80E0089590E06623E9F0825587
:100C20009E4FFC0180818F3FB1F0E82FE295EF707D
:100C3000F0E041A18F7021E030E0B90102C0660F01
:100C4000771F8A95E2F7CB01962F9095942391A375
:100C500092A1892B82A3089584559E4FE2CF909153
:100C60005C02292F30E070915D02A9014F5F5F4F58
:100C7000437055277417150689F0225A3D4F60FBC3
:100C800087F9F90180839F5F937090935C02809154
:100C90005A028F5F80935A0281E0089580E00895A0
:100CA00080915202837011F01092120180915202D1
:100CB0008C7F80935202089580915202837011F4C8
:100CC00010921201809152028C7F816080935202B7
:100CD000089579CF08956CCF089590914C02982B88
:100CE00090934C020895809157028F3F71F0E0E09D
:100CF000811103C081E0E1E0E81BF0E0E655FE4F22
:100D000080818093570281E0E8CF80E0F4CFE2E574
:100D1000F2E0248130E1231B08F420E0248381E009
:100D2000DCCFE2E5F2E0248130E1230F08F42FEF7D
:100D3000248381E0D2CF982F822F209152022370FA
:100D400051F09093530260935402473908F046E9FA
:100D500040935502C2CF0895E2E5F2E0438120E1DD
:100D6000421B08F440E0818121E0628190E0E3CF02
:100D7000E2E5F2E0438120E1420F08F44FEF818188
:100D800021E0628190E0D7CFE2E5F2E0628120E1EC
:100D9000621B08F460E0818121E0438190E0CBCFC9
:100DA000E2E5F2E0628120E1620F08F46FEF8181F9
:100DB00021E0438190E0BFCFE2E5F2E0818121E0D4
:100DC000438162818850990BB6CFE2E5F2E08181E0
:100DD00090E021E0438162810896ADCF282F862FD5
:100DE00090915202937041F0211107C0946090934A
:100DF00052021092120171CF0895233010F09860C2
:100E0000F6CF220F220F922BF2CF9091520296959D
:100E100096958FEF890F913009F482E061E0DECF83
:100E200080915202869586958F5F833008F081E02D
:100E300061E0D4CF482F2695E22F26FDE0953E2F86
:100E40003F7026FD3F5FE695E695E695E670F0E09B
:100E5000E259FE4F9181939F902D312D112492954F
:100E60009F703295307F932B8081980F27FD91954D
:100E700097FD9195990F292F249F020E20E0211DA7
:100E80001124822F0895CF93DF938091EE0280FD8D
:100E90000BC0D0E0C0E020E040E060E0CE01D7D45D
:100EA0002196C830D105B9F7EBD6DF91CF910895DF
:100EB000FF920F931F93CF93DF93182F062FF42EDB
:100EC0008091EE0280FF0CC0D0E0C0E02F2D402FBB
:100ED000612FCE01BCD42196C830D105B9F7D3DF3C
:100EE000CDB7DEB7E5E00C9489278091EE02982F0C
:100EF0009C7F61F4837084608093EE028091F102A4
:100F0000873918F086E98093F10208958831B0F3AB
:100F100083708461F1CFB0E0A0E0E1E9F7E00C94E8
:100F20006827262FD72EE82FF0E0E950FE4F7111E9
:100F30000AC0E4918E2F9E2F6E2F792FCDB7DEB78A
:100F4000EAE00C948427072F10E0E4914E2F56E03E
:100F5000659F70011124CFEFD0E0C701BE010E9450
:100F60001D27822F90E0880F991F55E5569F90010D
:100F7000579F300D1124821B930B582F550F580F7C
:100F8000CE01801B910BE89F9001E99F300D112449
:100F9000932FD59ED0011124AB2FBB276E01CA1A07
:100FA000DB0AEC9DD001ED9DB00D11248B2F5E016D
:100FB000A51AB108A09E6001A19ED00CB09ED00CD5
:100FC0001124CD2CDD24CC19DD09EC9F8001ED9F8F
:100FD000100D112463307105D1F05CEFE51653E07C
:100FE000F50670F461307105B1F062307105B9F049
:100FF0004FEFE416F10408F09FCF832F912F9CCF81
:101000006430710579F066307105B9F395CFE32F3F
:101010009B2F842F91CFEB2F832F942F8DCF812F58
:10102000E32FFBCF8E2FE12F87CFB0E0A0E0EBE1E5
:10103000F8E00C946A27182F80910E0191E081133B
:101040000BC080915202837020910D0130E091E03D
:101050008217130609F490E091709093110180912A
:10106000570290911001981731F08093100140E0E1
:1010700060E080E02EDE123009F44EC058F4111109
:101080001FC090911101992349F040E060E080E099
:1010900020DE03C01F3F09F47FC090E080910F0164
:1010A0008F5F80930F019111A0C082E080931201A5
:1010B00080911101811199C0111197C083E093C0F3
:1010C00080910F01C82FCC0FC80F03E00C0FC02E6A
:1010D0000D3010F04CE0C42E609153027091540218
:1010E0008091550218DFF62EE72ED82ED0E0CC15D1
:1010F00020F091E00C3090F2D0CFFE01EA58FE4F84
:1011000080A590911001892329F02D2D4E2D6F2D52
:10111000CE01E1DD2196EBCF80910F01C82FCC0FDE
:10112000C80F03E00C0FE02E0D3010F03CE0E32E72
:10113000309156023695369521E0320F08F43FEF94
:1011400040914D0250914E0290E080E0439F040E8A
:10115000811D539F800D911D1124850F911DF82E27
:10116000D0E0CE1508F0C5CFFE01EA58FE4F80A5AD
:1011700090911001892371F0609153027091540293
:10118000809155022F2D4C2F55DEC5DE472F282F7D
:10119000CE01A1DD2196E5CF80914D0290914E02C6
:1011A000A0914F02B09150022AE0B695A79597956D
:1011B00087952A95D1F783709927AA27BB27823074
:1011C0009105A105B105B1F083309105A105B105E7
:1011D000A1F040E060E00197A105B10581F464E170
:1011E00080E077DD82E080931201CDB7DEB7E8E0E2
:1011F0000C94862744E160E0F3CF44E164E184E1AC
:10120000F0CFCF93DF93EC01EC81F0E0E950FD4F9C
:1012100084919091EE0290FF0DC07091F002609168
:10122000EF02873908F086E976DE962F672F482F80
:10123000892F3EDE8C818F5F8C83DF91CF91089563
:1012400080E00895811522E5920708F04AC08115D3
:1012500030E5930708F0C5C0803E910540F58D3C10
:10126000910508F09AC0883A910580F4853A910575
:1012700008F090C08130910541F09C012450310963
:10128000213A310510F090E080E008959C01285A41
:1012900031092B313105B8F7885AE82FF0E0EE0F0D
:1012A000FF1FE65EFE4F8081918194640895811551
:1012B00040E4940798F4811550E2950708F0ABC01C
:1012C000883E910510F39C013A9521153F41D8F6CF
:1012D00020E0392FA901482BCA0108959F70906A18
:1012E0000895803852E59507B8F5803622E59207D3
:1012F00008F05CC0803432E59307C8F4803242E5E0
:10130000940708F04CC0282F2695269550E2259F7B
:1013100090011124482F437081E090E002C0880FB3
:10132000991F4A95E2F7822B932B9D680895282FE9
:1013300026952695277040E2249F90011124482F7E
:10134000437081E090E002C0880F991F4A95E2F750
:10135000822B932B9C680895803C52E5950760F49E
:10136000282F2F71803A9245B0F5822F90E0982F68
:101370008827846F906A08959C01205C3245203252
:10138000310508F080CF982F882788279F71806FBC
:10139000906A0895849790640895906508958F7178
:1013A00090E0982F8827816F906A0895282F2695BE
:1013B0002695277050E2259F90011124482F4370F5
:1013C00081E090E002C0880F991F4A95E2F7822BD6
:1013D000932B9A680895822F90E0982F8827906227
:1013E00008959C0195E0369527959A95E1F72F7021
:1013F00030E0322F2227482F4F7150E084FF06C083
:1014000084E0440F551F8A95E1F75527C901842BC5
:10141000952B906908959F71E2CF982F90958091B8
:101420009D02892380939D0208958091EB02909103
:10143000B202981301C008958F5F8770FACF9C01A4
:10144000982F977083E0369527958A95E1F7F901F3
:10145000EE0FFF1FE20FF31FE60FF71F50E040E013
:1014600080E0219130E0092E02C0369527950A943C
:10147000E2F721703327042E01C0220F0A94EAF705
:10148000822B4F5F5F4F4330510559F708959430D9
:1014900060F4843088F444E0949F9001112466EF56
:1014A00071E0820F932F911DCACF9C5F923020F480
:1014B00063EF71E090E0F8CF80E008959B016770E2
:1014C00091E001C0990F6A95EAF763E03695279598
:1014D0006A95E1F7F901EE0FFF1FE20FF31FE40F2A
:1014E000F51F50E040E0682F70E08191DF01119717
:1014F0009B01042E02C0369527950A94E2F72170CD
:1015000021952827292328272C934F5F5F4F4330AD
:10151000510559F70895282F862F943060F4243010
:1015200048F434E0939FB0011124620F711D46EF1F
:1015300051E0C4CF08959C5F9230E0F7622F70E0D5
:1015400043EF51E0F6CF80931B020895662309F420
:1015500053C08D3C29F4FEDA819580939002B1CA84
:101560008E3C11F4F7DAF9CF8F3C29F4F3DA819548
:1015700080938F02F4CF803D11F4ECDAF9CF893DEE
:1015800021F4C6DA80939102EACF8A3D19F4C0DAD9
:101590008195F8CF8B3D29F4BBDA81958093920237
:1015A000DECF8C3D11F4B4DAF9CF9FE2980F98307A
:1015B00070F4815D990B21E030E001C0220F8A9523
:1015C000EAF780918E02822B80938E02C8CF8D3DE8
:1015D00031F480918802816080938802C0CF8E3D73
:1015E00021F4809188028260F7CF8F3D09F0B7CF58
:1015F000809188028460F0CF40918F028D3C59F435
:101600008091900287FF0DC01092900241110BC093
:101610001092860208C08E3C81F4809190021816C8
:101620009CF3442381F08091910290919202892B46
:1016300009F095CF1092870292CF8F3C49F447FF73
:10164000F0CF10928F02809190028111ECCFE0CF09
:10165000803D19F41416ACF3E4CF90919102893DCA
:1016600029F41916F4F610929102DBCF8A3D19F491
:1016700097FFD7CFF8CF909192028B3D29F497FF37
:10168000D0CF10929202CDCF8C3D19F41916CCF325
:10169000C8CF9FE2980F983090F4815D990B21E0BC
:1016A00030E0B90102C0660F771F8A95E2F7CB01DF
:1016B000809590918E02892380938E02B2CF8D3DCA
:1016C00031F4809188028E7F80938802AACF8E3D6C
:1016D00021F4809188028D7FF7CF8F3D09F0A1CF53
:1016E000809188028B7FF0CFA0E2B0E0EAE7FBE0D8
:1016F0000C947027FE0133969EE1DF011D929A95AE
:10170000E9F79EEF998397E59A839CE49B8391E0A8
:101710009C8390E89D838E83CE0101960E944A03AC
:10172000A096E2E00C948C2725982D982D9808958A
:1017300027982F982F98089526982E982E980895D8
:10174000259A2D9A0895279A2F9A0895269A2E9AC7
:101750000895CF93C82F882361F081FF0AC0F6DF78
:10176000C2FF0AC0F0DFC3FF0AC0EADF8C2FCF91AF
:101770000895E2DFC111F4CFDBDFC111F4CFD4DF74
:10178000F5CFE7DF80931C02089590911C0221E0C1
:1017900030E0F90101C0EE0F8A95EAF7D90102C0E5
:1017A000AA0FBB1F6A95E2F7EA2B01C0220F4A95E8
:1017B000EAF7892F8E23E81303C0292B822FE1CF6C
:1017C00020952923FBCF21E030E001C0220F8A952C
:1017D000EAF7209580911C028223D3CF90910302D7
:1017E0008095892380930302282F277061F489173D
:1017F00051F090911E0292FF06C0869586958695BF
:10180000E2DF10920302089521E030E001C0220FD0
:101810008A95EAF780911C02822BB3CFF894E82FC7
:10182000E295EF70F0E041A18F7021E030E0B90166
:1018300002C0660F771F8A95E2F7CB01962F90952D
:10184000942391A392A1892B82A378940895FC01FB
:10185000EE0FFF1FE80FF91FE653FE4F6183408331
:1018600022830895529A08950F93CF93DF93CEEE7B
:10187000D2E0488159816A817B8188E090E00E94B2
:101880001028288139814A815B816C817D818E811C
:101890009F8100E20E94B227622F83E290E00E94C3
:1018A000FE27DF91CF910F9108950F931F93CF9350
:1018B000DF93182FD62FC42F022F9091EE0290FFA6
:1018C00023C0E92FE695E695F0E0E859FE4F8081C8
:1018D000809344029C7F9430E1F4842F473908F0D0
:1018E00086E9612F7D2F17DB962F672F482F892FD1
:1018F000DFDA1093EF02D093F002C093F1020023DD
:1019000019F08EEE92E0B0DFDF91CF911F910F9131
:101910000895823071F7C091F102EBCFEEEEF2E064
:10192000438128E0421B08F440E021E0628181818C
:10193000BCCFEEEEF2E0438128E0420F08F44FEF17
:1019400021E062818181B1CFEEEEF2E0628128E098
:10195000621B08F460E021E043818181A6CFEEEEB6
:10196000F2E0628128E0620F08F46FEF21E043812A
:1019700081819BCFEEEEF2E0818121E043816281A3
:10198000885093CFEEEEF2E0818121E043816281C5
:10199000885F8BCF8091F202882319F08150809369
:1019A000F2028EEE92E060CF8091F202833018F462
:1019B0008F5F8093F2028EEE92E056CFEEEEF2E071
:1019C00089E0808385ED81838FEF828386E983833D
:1019D0001482CF0149CF0F931F93CF93DF93962F9C
:1019E000142F022F632F843018F5923008F528E069
:1019F000829FE001112424E0929FC0011124C80FAE
:101A0000D91FC755DF4F82E090E0442311F090E0EA
:101A100080E08C0F9D1F0E94FE2783E090E0112341
:101A200011F081E090E0602F8C0F9D1F0E94FE2737
:101A3000DF91CF911F910F9108951F93CF93DF9363
:101A4000C62F122F632F8430E0F4C430D0F444301A
:101A5000C0F428E0C29FE001112450E0440F551F5C
:101A6000C40FD51F20E2829FC0011124C80FD91FC7
:101A7000CE0189960E94FE27612FCE018A960E9490
:101A8000FE27DF91CF911F9108958F929F92BF9271
:101A9000CF92DF92EF92FF920F931F93CF93DF933A
:101AA00007E714E0F12CE12CC0E04701D0E014C0BE
:101AB000F601259134914B2D6D2F8C2FBEDF22E046
:101AC000C20ED11CB39434E0B312F2CF84E0880E7E
:101AD000911CDF5FD43049F0C401880F991F9C012D
:101AE00029503C4F6901B12CE3CFF8012591349185
:101AF00041E060E08C2F6FDFF80132962591349140
:101B000040E060E08C2F67DFF80134962591349136
:101B100041E061E08C2F5FDFF8013696259134912A
:101B200040E061E08C2F57DF085F1F4FCF5F30E14F
:101B3000E30EF11CC43009F0B8CFDF91CF911F91B3
:101B40000F91FF90EF90DF90CF90BF909F908F907C
:101B500008950F931F93CF93DF938B01EA01909128
:101B6000A802943061F58093E9008FEF9091E8002E
:101B7000815095FD06C095ED9A95F1F70000811111
:101B8000F5CF8091E80085FF1AC00E94950381116E
:101B900011C08091E80085FD06C08091E8008E7735
:101BA0008093E800F2CFF80181918F018093F100DA
:101BB000219779F78091E8008E778093E800DF9194
:101BC000CF911F910F910895BC0143E050E084E054
:101BD000C0CFBC0146E050E084E0BBCFCF93DF93A1
:101BE000D82FC92F48E050E0682F792F81E0B1DF6E
:101BF00088E0ED2FFC2FAEE9B2E001900D928A95BE
:101C0000E1F7DF91CF910895792F603229F440E216
:101C100050E0682F82E09DCF089581E08093E0003E
:101C200080E28093D8001092C9008FE19EE4019772
:101C3000F1F700C0000087E090EBDC018093F60232
:101C40009093F702A093F802B093F90288E19CE028
:101C50000FB6F894A895809360000FBE9093600033
:101C6000FFCF6BB14BB142606D7F82E692E00E9484
:101C70002D038FE594E00197F1F700C0000008956F
:101C80006BB14BB144606B7F8AEC91E00E942D03F5
:101C90008FE594E00197F1F700C0000008954F929E
:101CA0005F926F927F928F929F92AF92BF920F93AB
:101CB000CF93DF9300D000D0CDB7DEB788E090E0BF
:101CC0000E94E5272B013C01AEEEB2E06C935092EE
:101CD000EF028093F0027092F1021092F2021092E1
:101CE000F3021092F4021092F50283E290E00E9457
:101CF000DD27282F30E040E050E060E070E080E039
:101D000090E000E20E949727242935294629572987
:101D1000EEEEF2E020833093EF024093F002509316
:101D2000F1026093F2027093F3028093F4029093B5
:101D3000F5020F900F900F900F90DF91CF910F91C0
:101D4000BF90AF909F908F907F906F905F904F90DB
:101D50000895CF93DF9385E290E00E94DD27D82F8E
:101D600086E290E00E94DD27C82F87E290E00E9483
:101D7000DD27982FD63229F4C83019F481E091314B
:101D800009F080E08170DF91CF910895462F572FA1
:101D9000BC01CA0187539F4F47335340610571050A
:101DA00010F40C94DD2780E00895A6E0B0E0EBEDA0
:101DB000FEE00C9470278D839E83AD81BE818D9152
:101DC0009D910D90BC91A02D89839A83AB83BC8398
:101DD000BC01CD01DBDF49815A816B817C814F5F82
:101DE0005F4F6F4F7F4FED81FE8140835183628350
:101DF00073832696E2E00C948C27FF920F931F9337
:101E0000CF93DF93F42E843070F5623060F528E0D4
:101E1000829FE001112434E0639FB0011124C60FBA
:101E2000D71FC755DF4F82E090E0442311F090E0C8
:101E300080E08C0F9D1F0E94DD27082F10E0102FDF
:101E4000002783E090E0FF2011F081E090E08C0F0C
:101E50009D1F0E94DD279801282BC901CDB7DEB751
:101E6000E5E00C94892790E080E0F8CF0F931F9372
:101E7000CF93DF93843038F5643028F5443018F57B
:101E800028E0629FE001112450E0440F551FC40F69
:101E9000D51F30E2839FC0011124C80FD91FCE0186
:101EA00089960E94DD27082F10E0102F0027CE0111
:101EB0008A960E94DD279801282BC901DF91CF91D6
:101EC0001F910F91089590E080E0F8CF743038F4BE
:101ED000643060F4843050F4462F672FC7CF7D3FC5
:101EE00041F4623018F441E0843050F080E090E03A
:101EF00008957C3FD9F76230C8F78430B8F740E0E6
:101F00007CCFB0E0A0E0E7E8FFE00C946B277C0119
:101F100000911C0280911B02082BC3E0D0E010E06E
:101F2000DC2EC8010C2E02C0959587950A94E2F725
:101F300080FD09C02197A0F7D12C8D2DCDB7DEB73C
:101F4000E7E00C948727B7018C2FC0DF7BD901977E
:101F500089F3F3CFCF93DF93D82FC92FD2DF6D2F23
:101F60007C2FB4DF6FD9DF91CF910895FC0184817C
:101F7000882399F080819181EDDF282F92959F70C1
:101F8000963091F060F4925F9F70923030F481E06F
:101F9000203F81F030F4283E30F080E004C09A5FAA
:101FA000F3CF243FD1F7089581E0283E20F0213F70
:101FB000A1F7F9CF08950895A6E0B0E0E2EEFFE0C2
:101FC0000C946F279C0186E0F901DE0111960190C7
:101FD0000D928A95E1F7F901258189819A81222361
:101FE00081F0662371F08DDF182F682F89819A8127
:101FF00092DA69817A81812F69DF2696E3E00C9479
:102000008B2745DA182FF5CF4F925F926F927F9210
:10201000AF92BF92CF92DF92EF92FF920F931F93F6
:10202000CF93DF93CDB7DEB760970FB6F894DEBFDE
:102030000FBECDBF1A821982FE0133968EE0DF01FA
:102040001D928A95E9F705E310E097E3492E93E0A6
:10205000592E612C712C29ECA22EB12C01501109A2
:10206000A9F460960FB6F894DEBF0FBECDBFDF9126
:10207000CF911F910F91FF90EF90DF90CF90BF9085
:10208000AF907F906F905F904F9008956201B1E1A3
:102090004B165104610471042CF080E1C82ED12C40
:1020A000E12CF12CA601B501CE0101960E94EF278B
:1020B000AC0CBD1C0D2C000CEE08FF084C185D0884
:1020C0006E087F08CBCF6FEF85E290E00E94FE277D
:1020D0006FEF86E290E00E94FE276FEF87E290E0CC
:1020E0000E94FE2760E088E290E00E94FE27CDDC9F
:1020F0008BDF66E285E290E00E94FE2768E086E2E0
:1021000090E00E94FE2761E187E290E00C94FE27B8
:10211000CF92DF92EF92FF92CF93DF9300D000D067
:10212000CDB7DEB70E94CD0460934702709348029A
:102130008093490290934A02209151022983209171
:102140001201223009F45CC0F0F421112AC010926F
:102150000F0160934D0270934E0280934F02909353
:10216000500280914602811108C080915202282FAE
:10217000237019F0282F269526952093510281E08F
:102180008093120103C0233009F445C00F900F90D3
:102190000F900F90DF91CF91FF90EF90DF90CF9055
:1021A000089589810E9415088981882379F3809197
:1021B0001201823059F780914B02882339F3833022
:1021C000C9F040F4813071F02FEF40E58230F1F634
:1021D00060E00BC0843089F02AE540E08530B1F63C
:1021E0006FEF03C026E946E966E98BE090E00E94C4
:1021F0006B06CCCF20E04AEAF3CF26E44FEFE8CFDE
:10220000298120930E0180915202837080930D01E9
:1022100028DD83E0B5CF80914C02882351F048E05F
:1022200050E067E170E082E592E00E94EF271092B3
:102230004C02C0904D02D0904E02E0904F02F090C0
:1022400050020E94CD04DC01CB018C199D09AE091E
:10225000BF094097A105B10508F498CF109212016B
:1022600095CFE2E5F2E089E08083809117019091BB
:102270001801A091190181839283A38380E684834E
:102280008FEF858348E050E067E170E0CF010E9466
:10229000EF2710924C0208956091EE0266956695C4
:1022A00070E041E050E08CE091E00E941C28892B16
:1022B00019F481E0809345020E94EA0490933F0262
:1022C00080933E0208959091EE0290FF25C0937096
:1022D000811123C094609093EE02662319F08EEE74
:1022E00092E0C2DA6091EE026695669570E041E098
:1022F00050E08CE091E00E941C28892BB1F01092F4
:10230000450281E08093410220E04091F10260911A
:10231000F0028091EF02C9CA0895863010F09461EE
:10232000DACF880F880F982BD6CFB6DFEACFEEEE44
:10233000F2E080818160808360E086958695C3CFDE
:102340009091EE02969596958FEF890F913009F452
:1023500085E061E0B8CF8091EE02869586958F5F2B
:10236000863008F081E061E0AECF90911E0292FBD2
:10237000222720F9281771F080FB92F990931E0212
:1023800060911D0270911E0284E090E00E94182866
:1023900082E024CA0895A5E0B0E0E1EDF1E10C94FB
:1023A000662780E5E82E81E0F82E40E152E05A836E
:1023B0004983D12C01E010E0BB24B394D7018D9167
:1023C0007D018F3F09F43BC0F894E82FE295EF7050
:1023D000F0E021A18F70A80102C0440F551F8A951B
:1023E000E2F7CA01922F982B91A392A1809589239D
:1023F00082A3789400C0E4E5F1E041E0C12C20E044
:1024000053E0D5128FC0211187C08FB187FB882779
:1024100080F98B25811197C0842FC82A2F5F440F24
:102420003196243069F7F701319780818F3F09F0A9
:10243000F5D980EA8A95F1F7A981BA81CC92D39433
:10244000E981FA813196FA83E983F4E0DF12B6CFAD
:1024500044E050E060E172E087E192E00E942928C8
:10246000892B09F474C08091100290911102A091FF
:102470001202B09113028093170290931802A09356
:102480001902B0931A0281E0809316020E94EA04B6
:1024900090931502809314021D8280914B02882331
:1024A000B1F1C0903602D0903702E0903802F0903F
:1024B0003902C114D104E104F10449F180903A02D7
:1024C00090903B02A0903C02B0903D020E94CD044F
:1024D000DC01CB0188199909AA09BB098C159D0556
:1024E000AE05BF05A0F010924B020E94CD04609390
:1024F0003A0270933B0280933C0290933D0210920B
:1025000036021092370210923802109239028D81F1
:102510002596ECE00C948227233021F48FB180952E
:10252000817078CF30813F3F71F0A32FA295AF70BB
:10253000B0E090968C9190E03F7002C095958795A1
:102540003A95E2F7EDCF80E068CF1D822BC0409135
:1025500016024D83442309F49FCF00911402109179
:1025600015020E94EA04801B910B059708F494CF92
:1025700044E050E067E172E082E292E00E942928A4
:10258000892B19F38091170290911802A0911902DA
:10259000B0911A028093220290932302A093240206
:1025A000B09325021092160278CF80919D029091EF
:1025B0000502892B90910402992389F0892B90E0E0
:1025C00024EC31E0F90140812F5F3F4F41119F5FC3
:1025D00041E02A3C3407B1F7911110920402809334
:1025E000C20148E050E066E072E082EC91E00E94B7
:1025F0002928892BB9F088E0E2ECF1E0A6E0B2E00E
:1026000001900D928A95E1F7E091EC02F091ED02D4
:10261000309741F00280F381E02D309719F082EC81
:1026200091E009950895CF93C6E0E4ECF1E0DF0175
:102630008C2F1D928A95E9F790E080E00E94210599
:1026400090E080E00E94F90410920502AEDFEDE810
:10265000F2E0DF011D92CA95E9F71092860210920E
:102660008702109288020E946105CF910895AAE224
:10267000B0E0EDE3F3E10C946F278AEA92E0FC010D
:1026800001962091F100208322E0823B9207B9F766
:102690008091AB02893009F45BC0C8F4823009F440
:1026A000B8C0833009F487C0813099F18091E80087
:1026B00083FF3BC18091AA029091AB029A3008F04F
:1026C00034C1E92FF0E0E85CF74D0C9444278A30E0
:1026D00009F48EC08B3051F78091AA02813231F714
:1026E0008091AE029091AF02892B01F78091E800B2
:1026F000877F8093E8000E94C60381E09091AC023E
:10270000911101C080E08093150110929D028BDF32
:10271000CDCF8091AA02813A49F68091E800877F67
:102720008093E8008091AE029091AF02892B61F412
:1027300068E08EE992E070E00E9471048091E80008
:102740008B778093E800B2CF60E090E080E0F3CF39
:102750008091AA02813209F0A9CF8091AE029091B6
:10276000AF028D7F892B09F0A1CF8091E800877F90
:102770008093E8008091E80082FF18C09091F300F8
:102780008091F200029731F48091F100813011F0D4
:10279000863021F48091F100809314018091E8004B
:1027A0008B778093E8000E94C60380CF8091A802B7
:1027B0008111E0CF7BCF8091AA02813A09F076CFD8
:1027C0008091AE029091AF02892B09F06FCF80917A
:1027D000E800877F8093E8008091E80080FFFCCFCD
:1027E000809115018093F1008091E8008E77D9CF18
:1027F0008091AA02813209F059CF8091E800877F49
:102800008093E8000E94C6038091AD02809313017B
:102810004DCF8091AA02813A09F048CF8091E8001B
:10282000877F8093E8008091E80080FFFCCF809153
:102830001301D8CF803899F0823809F076C08091A2
:10284000AE028F70873008F070C08093E9008091ED
:10285000EB0085FB882780F91092E90006C0809183
:10286000A6029091A702911182609091E800977F53
:102870009093E8008093F1001092F1008091E800BD
:102880008E77B7C1882309F4A4C1823009F04DC006
:102890008091AC028111A8C18091AE028F702FEFA0
:1028A000280F263008F041C08093E9002091EB000A
:1028B00020FF9AC1933031F48091EB0080628093C5
:1028C000EB0092C19091EB0090619093EB0021E0BE
:1028D00030E001C0220F8A95EAF72093EA001092B7
:1028E000EA008091EB008860EACF81111EC0109150
:1028F000AC021F778091E3008078812B8093E30006
:102900008091E800877F8093E8000E94C603809151
:10291000E80080FFFCCF8091E30080688093E300B3
:1029200082E0111183E08093A8028091E80083FF88
:102930000AC08091E800877F8093E8008091EB00D7
:1029400080628093EB00AA96E3E00C948B2780587A
:10295000823058F74091AC025091AD024C3D83E07B
:102960005807A1F583E08A838AE289834FB7F894F8
:10297000DE01139620E03EE051E2E32FF0E05093B9
:102980005700E49120FF03C0E295EF703F5FEF70C6
:102990008E2F90E0EA30C0F0C7968D939D932F5F05
:1029A000243159F74FBF8091E800877F8093E8007A
:1029B0006AE270E0CE0101960E9471048091E80005
:1029C0008B778093E800B1CFC096E7CF8091AE02BD
:1029D0009091AF02252F33272330310509F44AC0E7
:1029E00078F52130310509F479C08BE590E0E7E90D
:1029F000F4E02230310509F098CF2091E800277FDC
:102A00002093E8002091B0023091B1028217930721
:102A100008F49C0140E02115310509F064C0411122
:102A200062C08091E80082FDC9CF8091A80288230E
:102A300029F2853019F28091E80083FFF2CFBECFF2
:102A40002132310509F43BC02232310509F06DCF46
:102A50008330910508F069CFFC01EE0FFF1FED54A4
:102A6000FE4F0190F081E02D80559E4FDC018C914E
:102A700090E011C0CA019927413089F08230910558
:102A8000B1F0892B09F051CFE4E3F5E0E4918E2F0A
:102A900090E0E4E3F5E0009709F447CFAECFEAE138
:102AA000F5E0E4918E2F90E0EAE1F5E0F4CFE4E088
:102AB000F5E0E4918E2F90E0E4E0F5E0ECCF833098
:102AC000910508F032CF880F991FFC01E754FE4FA3
:102AD0000190F081E02D89E090E08FCF82E190E0DD
:102AE000E2EFF4E08ACF8091A802882309F466CF50
:102AF000853009F463CF8091E80083FD5FCF80913A
:102B0000E80082FD8ECF8091E80080FF84CF909115
:102B1000F3008091F2002115310519F088309105FC
:102B200050F041E0089709F040E08091E8008E778E
:102B30008093E80070CF44914093F100319621508A
:102B400031090196E8CF803809F0EFCE8091E80096
:102B5000877F8093E8008091A9028093F1008ECE58
:102B60008111E3CE1091AC02123008F0DECE8091DC
:102B7000E800877F8093E8001093A9020E94C603B3
:102B8000112311F084E005C08091E30087FDFACFA6
:102B900081E08093A80242E061EC81E00E94E503BD
:102BA00042E261EC84E00E94E50342E261EC82E0F3
:102BB0000E94E50342E260EC83E00E94E50380911D
:102BC000A802843021F081E080931601AECE82E02D
:102BD000FBCF8091AC02813009F0A7CE81E0933029
:102BE00009F080E08093A7021092E9008091E8004C
:102BF000877F8093E8000E94C60397CE10929D02C3
:102C000012DD88E19CE00FB6F894A89580936000EF
:102C10000FBE90936000FFCF882319F00E940D0A29
:102C2000C4CC0895882331F090919D02892B809324
:102C30009D02BBCC08958823B1F19CEF980F913A87
:102C400068F4E4ECF1E09191891303C0DF0111977E
:102C50001C9291E0EA3CF907B1F7A7CC90E2980FFB
:102C6000983050F4877091E001C0990F8A95EAF787
:102C7000892F0E940D0AF1CF9BE5980F933020F425
:102C800090E080E00C94210598E5980F9B3120F4AA
:102C900090E080E00C94F90493E3980F933118F4DA
:102CA00060E00C94A60A08950F931F93CF93C82F4A
:102CB000882331F18CEF8C0F813AA0F504EC11E000
:102CC000F8018191C81701F121E0EA3CF207C9F748
:102CD000EFEF80E0D8019D918D01C91781F0EF3FA2
:102CE00019F4911101C0E82F8F5F863099F7EF3FFB
:102CF00031F00E2E000CFF0BEE53FE4FC28355DC5D
:102D0000CF911F910F910895E4ECF1E08191C813E8
:102D100003C0DF0111971C9231E0EA3CF307B1F7E1
:102D200044DCD6CF80E28C0F883068F4C77021E095
:102D300030E001C0220FCA95EAF780919D02822BF4
:102D400080939D02DCCF8BE58C0F833038F42C2FE1
:102D50002452330BC9010E942105D2CFE8E5EC0FC4
:102D6000EB3150F4F0E0EE0FFF1FE65EFE4F808186
:102D700091810E94F904C4CF83E38C0F833108F062
:102D8000BFCF61E08C2F0E94A60ABACF1F93CF93CA
:102D9000DF93182FEB0188DF209731F4812F4BDF71
:102DA000DF91CF911F9108958FE99FE00197F1F78F
:102DB00000C000002197F0CF70E060E0893311F48B
:102DC00060E570E0E3CFB0E0A0E0E9EEF6E10C945E
:102DD00066278C01B62EA72E8AE0982E8B2D9A2D71
:102DE000F8010995882391F1813009F049C08B2DB4
:102DF0009A2DF8010995813031F48B2D9A2DF80127
:102E00000995DADFEBCF823031F48B2D9A2DF80162
:102E100009954ADFE3CF833031F48B2D9A2DF801E9
:102E2000099509DFDBCF843079F48B2D9A2DF801D9
:102E30000995D0E0C0E0482F4053550B9A014A3025
:102E4000510548F02097A1F48111C8CFCDB7DEB766
:102E5000ECE00C9482279C9EC0019D9E900D112455
:102E6000E901C80FD91F8B2D9A2DF8010995E3CFE1
:102E7000EFE9FFE03197F1F700C000002197E2CFC2
:102E8000E82FF0E0E859FA4F8490282F26952695F0
:102E9000269530E0F901E85AFA4FE4908770F12C5A
:102EA000082E02C0F594E7940A94E2F7F1E0EF22CD
:102EB000FF24F901E85BFA4FC490D12C082E02C020
:102EC000D594C7940A94E2F741E0C422DD24F901C5
:102ED000E85CFA4FC491D0E002C0D595C7958A95B9
:102EE000E2F7C170DD27E114F10411F081EEDCDEC0
:102EF000C114D10411F086EED7DE70E060E0882DB9
:102F000045DFC114D10411F086EE95DEE114F10421
:102F100011F081EE90DECD2B09F460CF8CE271CF01
:102F2000A8E0B0E0E6E9F7E10C9465277C01DC015C
:102F300014968C91882371F161E0C7013DD89C0102
:102F4000F7019581F901E054FE47E830F10508F0FA
:102F500075C0EE5BF74D0C944427992361F089EC22
:102F600091E09A838983BE016F5F7F4F88E595E08A
:102F70002ADF88E221DF80910302877059F0F70190
:102F80008581882339F080911E0282FF03C082E090
:102F90000E94EE0B2896EDE00C948127992359F3BB
:102FA00088E991E0DECF992331F383E991E0D9CF2D
:102FB000992309F38DE891E0D4CF9923E1F281E0E0
:102FC0000E94740B89E6D6CF9923A9F282E00E9471
:102FD000740B8CE6CFCF992371F283E00E94740BBF
:102FE0008DE6C8CF992359F00E94CD046093EE017D
:102FF0007093EF018093F0019093F101BCCF80902A
:10300000EE019090EF01A090F001B090F1010E94CC
:10301000CD046D837E838F839887DC01CB01881973
:103020009909AA09BB0988389341A105B10508F49B
:10303000A2CF10929D02F7DA0E940D0E992309F497
:103040008CC0A90157574038510588F5122F2031FF
:1030500008F091CF66E373E080E090E00E94C60E36
:10306000811189CF812C912C540111110BC08982BF
:103070009A82AB82BC82BE016F5F7F4F85ED9EE07E
:10308000A2DE79CF27E3821623E09206A104B104E1
:1030900009F471CFC501B4010E94C60E811101C0AF
:1030A00011508FEF881A980AA80AB80ADECF8091CB
:1030B0009D028272F901E052F847EB30F10508F009
:1030C00024C3E65BF74D0C9444278091EE0280FF09
:1030D0000CC08E7F8093EE028EEE92E00E94340C44
:1030E000109245020E94430746CF81608093EE0212
:1030F00061E086958695E7D83ECF882321F020D9D8
:103100003ACF8823E1F327D936CF882329F00E94CC
:10311000BA0C31CF8823D9F30E94C20C2CCF88235C
:1031200029F00E94A40C27CF8823D9F30E94AF0C6A
:1031300022CF882329F00E948E0C1DCF8823D9F33B
:103140000E94990C18CF882329F00E94CA0C13CF33
:103150008823D9F30E94D40C0ECF80919D028272F5
:10316000F901E054F847EF30F10508F052C0EB5A8E
:10317000F74D0C9444270E945C0681E00E946D0686
:10318000FACE0E945006F9CF8091520291E0892731
:103190008093520210921201F0CF882329F00E94EE
:1031A0000507E9CE8823D9F30E941007E4CE8823CF
:1031B00029F00E94DC06DFCE8823D9F30E94E506C1
:1031C000DACE882329F00E94C406D5CE8823D9F30D
:1031D0000E94D006D0CE882329F00E94AC06CBCE28
:1031E0008823D9F30E94B806C6CE882329F00E940E
:1031F0008706C1CE8823D9F30E949106BCCE8823CE
:1032000029F00E947306B7CE8823D9F30E94730673
:10321000B2CE2737ACE73A0709F082C281E00E94BC
:10322000E30B03C081E00E94040C43E062E081E014
:103230000E94C50BA0CE82E0F2CF9923F9F080E086
:103240002B35BCE73B0709F46FC02C35ECE73E0794
:1032500009F463C081E02A35FCE73F0709F464C044
:1032600021308CE7380709F467C02330ACE73A0710
:1032700009F45CC021153C4709F4DBCED701CD90A1
:10328000DC90992309F459C0C6010E94810F182FC0
:10329000682FC6010E948B0AB601812F0E94660F1B
:1032A0000E9422098C01882EF701758096809294E5
:1032B0002FE0922280910302877009F1B72C7720CA
:1032C000F9F0812F807F803469F080E2800F8830B0
:1032D000B0F0812F807E803229F4F1E0F01778F48D
:1032E000992069F080911E0282FF09C082E00E944D
:1032F000EE0B809103028770BB24B3948111B12C33
:10330000812F82958F70C82ED12C8C3008F074C01C
:10331000F601EC59F74D0C94442780911E0282FB74
:10332000882780F991E0892720D825CE6FEF7FEF9D
:1033300090E080E00E94182861DCC6010E94470AE4
:10334000182FAACF212F2F70A22E107F19F0A29430
:1033500090EFA922802F7720B1F0AA2061F090E2AF
:10336000900F983010F0011108C080919D02A82A9A
:10337000A0929D021AD9802F3EC080910502A82AF2
:10338000A0920502F7CF57DCAA20B1F1005E083009
:1033900010F0811004C08A2D0E940D0A06C0A0946E
:1033A00080910502A822A0920502FFD825C0812F96
:1033B0008F70A82E107F103219F0A29480EFA822EF
:1033C000882051F091E0891609F458C0772009F45B
:1033D00063C0992049F1CFCF80911E0282FD20C0A9
:1033E0007720C9F0AA2031F080919D028A2980932C
:1033F0009D02DBD880E058DC28E0C21AD10884E0C6
:10340000C816D10408F068C10E94490560E0C701F0
:103410000E94DC0FBFCD80E00EDCAA2069F3BBCF99
:10342000772091F0911003C08A2DFCDBE5CFA1E05D
:103430009A12E2CF809104029A2D9823A916E1F204
:103440008A2980930402D8CF9110D6CF8A2DE4DB4D
:10345000909104028A2D892329F08A2D8095892351
:10346000809304029091F2018A2D892309F4C4CF3C
:103470008A2D809589238093F201BECF772029F091
:10348000B5E0B91508F4B8CFCFCFE4E0E91508F4FA
:10349000B3CF8A2DC1DBB0CF9920D9F3093349F4DA
:1034A000FFEF27EE83E0F15020408040E1F700C0BD
:1034B0000000802FC0DBA0CF812F8695869583707A
:1034C00061F0813009F098CFC8019370711002C08B
:1034D00080E090E00E94F9048FCFC80193707110D2
:1034E00002C080E090E00E94210586CF672D802FEA
:1034F0000E94A60A81CF812F837091F571107CCF35
:10350000402F429546954770440F440F802F8F708F
:10351000042E01C0880F0A94EAF7202F207104FFBF
:1035200007C02FE030E001C0220F4A95EAF720954E
:10353000169516951370123071F0133051F03091CA
:103540001B02113029F0822B83230E94A30A54CF3F
:10355000832B822BFACF282B80911B028227F5CF59
:103560008695772011F0812F8170882309F444CF4C
:10357000402F429546954770440F440F802F8F701F
:10358000042E01C0880F0A94EAF7202F207104FF4F
:1035900007C02FE030E001C0220F4A95EAF72095DE
:1035A000169516951370123071F0133051F030915A
:1035B0001C02113029F0822B83230E94C10B1CCFE7
:1035C000832B822BFACF282B80911C028227F5CFE8
:1035D0001F70772029F0812F0E94040C802F25CFA7
:1035E000802F1ADB812F0E94E30B06CF802F92EFF2
:1035F0008916B1F1981570F0A0EF8A16D1F0B1EFED
:103600008B1691F0772009F457C09110B4CE812F1A
:103610008F712AC0E3EF8E1651F1F4EF8F12F2CFC3
:1036200090911E0292FD2FC0812F8F717720D9F2C9
:103630001BC0772081F024E0291508F4DDCE1F712E
:1036400081E090E0012E01C0880F0A94EAF7909182
:103650001C028927B2CF85E0891508F4CDCEEFCFC3
:10366000812F8F717110BFCF0E94040CC5CE80E0F6
:10367000772009F4A2CF1F7181E0012E01C0880FCD
:103680000A94EAF79ACF772061F0812F8F7192FF29
:10369000EBCF98E0899F90011124236020930302CF
:1036A000E3CF81E00E94EE0BA1E0A91508F0A4CEC3
:1036B00082E00E94EE0BA0CE992059F0893309F0E8
:1036C000F8CEBFEFE7EEF3E0B150E040F040E1F7B5
:1036D000EECE812F8F7187CFBB2009F497CE8091DA
:1036E000030280FD93CED70115961C928695869590
:1036F00086950E94040CC70113DC80910302869515
:10370000869586950E94E30B81CE2737BCE73B0761
:1037100009F488CD2837ECE73E0739F482E083CD01
:103720002837FCE73F0709F486CDA901405E5245E2
:103730004032510508F081CD911197CD2F7101E0F4
:1037400010E002C0000F111F2A95E2F7602F83E0FE
:1037500090E00E94FE27802F0E94A30A0CCCCF93FA
:10376000DF9380910202807F09F04CC080910102BA
:10377000882309F447C0E091EB025091B202C09156
:10378000FD01D091FC016091FE017091FF0147E0C5
:103790005E17C1F18E2F90E0E49FF0011124ED54EB
:1037A000FD4F2481222389F1489FF001499FF00DAC
:1037B0001124DF01AD54BD4F11962C9111972C139C
:1037C00024C02C912D1321C015962C9115972111F1
:1037D0001CC012962D913C91261B370B283C3105BD
:1037E000A0F4809102028F70806180930202E754FE
:1037F000FD4F80818F70806180838CEF91E090DB42
:103800000E94150ADF91CF910895FC013196E7706F
:10381000BFCFADE0B0E0EFE0FCE10C9466278C0197
:1038200086E0F801DE01189601900D928A95E1F785
:10383000F8018481E5809CEFA92E91E0B92E90914A
:103840000002911126C0882309F1EE20E9F0C80199
:103850000E94B60FF82E8823B9F087E0F801D50151
:1038600001900D928A95E1F780910002813031F448
:103870008091FC019091FD010E94AA0F70DF8F2DB5
:103880002D96ECE00C948227C8014ADBFF24F394C8
:10389000F6CFD080C18082809380F0900102209189
:1038A000FE013091FF01A401421B530BFF2009F4DC
:1038B000B6C0483C510508F08EC0882301F39091B2
:1038C000FD0180910202282F207F09F054C0C91207
:1038D00013C09091FC01D9120FC0E11046C08F7047
:1038E0008061809302028CEF91E01ADB80910202EA
:1038F000F8018683F12CC3CFE11037C06C2D8D2DDC
:103900000E9458036C2D8D2D0E945803E82E8111C2
:10391000F1CFD886C986888599850E94AA0F292F5C
:1039200022952F70903458F49F70223080F09923A4
:1039300091F0F8019681907F71F4FE2CA0CF2A5F60
:103940002F70223060F0C801EBDAEF2CF6CF99230C
:1039500011F0882391F3805E883078F3F4CF803FB4
:1039600060F3815F833048F3EECF80910202816083
:1039700080930202BFCFC91207C09091FC01D912F7
:1039800003C0EE2009F46CC0C8010E94B60F882362
:1039900009F47ACFEE2009F477CF809102028032C9
:1039A00080F02091FC013091FD013A8329839C82B3
:1039B0008B82909100029D831E828F83CE0101969F
:1039C000AFDA87E0F801ACEFB1E001900D928A9593
:1039D000E1F7C5DE5BCF90910202292F207F49F4E9
:1039E0008CEF91E09DDA87E0F50111928A95E9F775
:1039F00081CF882309F443CF8091FD018C11C4CF7E
:103A00008091FC01D812C0CFE110BECF9683C801CF
:103A100087DA87E0F50111928A95E9F730CF483CC3
:103A20005105B8F7882309F431CFFE2CEE2009F4B4
:103A30002BCF8091FD018C111FC08091FC01D81209
:103A40001BC08091020280FD0EC0982F907F59F01C
:103A50008683903F31F0982F907F905F8F70892BF5
:103A60008683C8015DDA87E0F801ACEFB1E0019030
:103A70000D928A95E1F703CFC8010E94B60F81111C
:103A8000A0CF80910202816080930202C80148DACF
:103A9000F6CEABE1B0E0EFE4FDE10C946F274E8B86
:103AA0005F8B688F798F8A8F9B8F9111109205029F
:103AB0001D8A86E0FE017696DE011F9601900D922A
:103AC0008A95E1F78B89882351F061E0CE010F964A
:103AD0000E94DC0F61E0CE010F960E94DC0F87E0B0
:103AE000FE013F96DE01189601900D928A95E1F74E
:103AF000CE0108968EDE81110CC087E0FE0138965B
:103B0000DE01119601900D928A95E1F74C854111E5
:103B10000BC017E08091EB029091B202891334C080
:103B20006B96E3E00C948B272091B20230E0C90140
:103B30000196877099275091EB0258171906A1F04A
:103B40004D8397E0929FD001939FB00D1124AD5407
:103B5000BD4FFE01319601900D929A95E1F7809349
:103B6000B2020E94150AD5CF10929D020E94131333
:103B70001092B2021092EB0287E0ECEFF1E0DF016D
:103B80001D928A95E9F7C5CF819FC00111248D54FC
:103B90009D4F3FDE882321F28091EB0290E0019659
:103BA000877099278093EB02B5CFA6E0B0E0EBEDEC
:103BB000FDE10C946E270E94EA048C0180910E02B4
:103BC00090910F028017910779F019821A820E9452
:103BD000EA04682F49815A81792F80E090E059DF0B
:103BE00010930F0200930E022696E4E00C948A27AD
:103BF0001F920F920FB60F9211242F933F934F9362
:103C00005F936F937F938F939F93AF93BF93CF9364
:103C1000DF93EF93FF93D091E900DF708091EC0088
:103C2000C82FC17080FDC0E81092E9008091F000BB
:103C3000877F8093F00078940E9437131092E900F8
:103C40008091F00088608093F000CD2BCF70C093FE
:103C5000E900FF91EF91DF91CF91BF91AF919F91DB
:103C60008F917F916F915F914F913F912F910F9025
:103C70000FBE0F901F9018951F920F920FB60F92C4
:103C800011242F933F934F935F936F937F938F9361
:103C90009F93AF93BF93EF93FF938091E10082FFD7
:103CA00009C08091E20082FF05C08091E1008B7F16
:103CB0008093E1008091DA0080FF24C08091D800D9
:103CC00080FF20C08091DA008E7F8093DA0080919F
:103CD000D90080FFA9C080E189BD82E189BD09B416
:103CE00000FEFDCF81E08093A80280919C028111AB
:103CF00009C00E9476030E9417048091E20084604C
:103D00008093E2008091E10080FF1AC08091E20080
:103D100080FF16C08091E2008E7F8093E200809148
:103D2000E20080618093E2008091D80080628093FD
:103D3000D80019BC85E08093A80283E08093160127
:103D40008091E10084FF2FC08091E20084FF2BC0AE
:103D500080E189BD82E189BD09B400FEFDCF80917B
:103D6000D8008F7D8093D8008091E1008F7E809372
:103D7000E1008091E2008F7E8093E2008091E2007A
:103D800081608093E2008091A902882309F452C0E7
:103D900084E08093A8028091A802843009F452C084
:103DA00081E0809316018091E10083FF2CC0809117
:103DB000E20083FF28C08091E100877F8093E100CB
:103DC00082E08093A8021092A9028091E1008E7F88
:103DD0008093E1008091E2008E7F8093E2008091E9
:103DE000E20080618093E20042E060E080E00E94B7
:103DF000E5038091F00088608093F00081E080937B
:103E0000160180931501FF91EF91BF91AF919F91A2
:103E10008F917F916F915F914F913F912F910F9073
:103E20000FBE0F901F90189519BC1092A802109207
:103E30009C0268CF8091E30087FD02C081E0A9CF9A
:103E400083E0A7CF82E0ADCF78941F921FB61F9278
:103E500011248F939F93AF93BF9380919802909179
:103E60009902A0919A02B0919B020196A11DB11DE9
:103E70008093980290939902A0939A02B0939B0228
:103E8000BF91AF919F918F911F901FBE1F9018956A
:103E90001F921FB61F9211248F939F93AF93BF93CE
:103EA00080919702811113C080919802909199029C
:103EB000A0919A02B0919B024196A11DB11D8093E1
:103EC000980290939902A0939A02B0939B02BF919B
:103ED000AF919F918F911F901FBE1F901895CDB7E6
:103EE000DEB7E0970FB6F894DEBF0FBECDBF85B743
:103EF000806885BF85B7806885BF84B7877F84BFAA
:103F00000FB6F894A8958091600088618093600056
:103F1000109260000FBE80E890E00FB6F894809396
:103F20006100909361000FBE81E08093160180E2F2
:103F300099E09093C1018093C0010E9476030E9492
:103F400017048091E20084608093E200789480916D
:103F5000A8028823A1F01091E9001F709091EC0055
:103F6000892F817090FD80E8182B1092E9008091D4
:103F7000E80083FD0E9437131F701093E90082E070
:103F800084BD93E095BD9AEF97BD80936E000E942B
:103F9000A90E811102C00E946310EAE5F2E088E0F8
:103FA000DF011D928A95E9F782E08093330260E099
:103FB00080E00E940C0661E080E00E940C0660E058
:103FC00081E00E940C0661E081E00E940C06EFE8AF
:103FD000F1E03197F1F700C0000010E0809133026A
:103FE000181708F48CC081EF0E940E0C84EF0E9419
:103FF0000E0C85EF0E940E0C86EF0E940E0C84E3DF
:104000000E940E0C86E60E940E0C87E60E940E0CA3
:1040100086EC0E940E0C87EF0E940E0C80EF0E942F
:104020000E0C109217021092220210921802109297
:104030002302109219021092240210921A02109276
:10404000250290E080E0C6D7833E9E4F21F40E9477
:10405000A90E811130C063EE7EEF90E080E0E8D7DA
:1040600060E082E090E0CAD781E080931B0261E0CB
:1040700083E090E0C3D760E074E184E090E0D8D7BB
:104080000E94DE0C0E9431110E94631040E050E05B
:10409000BA018FE090E0C4D740E050E0BA0183E17C
:1040A00090E0BED748E050E067E170E082E592E042
:1040B00096D710924C0282E090E07FD780932A023C
:1040C00084E090E087D790931E0280931D020E94A7
:1040D000CB112FEF86E791E0215080409040E1F72F
:1040E00000C000000E94CB118091220280FF19C005
:1040F0006FEF7FEF90E080E09BD70E940D0E60E0B5
:10410000812F0E94F005082F61E0812F0E94F005A9
:10411000E12FF0E0EF5CFD4F880F802B80831F5F65
:104120005DCF83E090E049D70E94A30A80911C02F2
:104130000E94A90B0E94EE0581E080934C0248E0AA
:1041400050E067E170E082E592E027D710924C02E0
:10415000809152028C7F11F40E94311180911F02D4
:10416000811120C08EEE92E00E944F0E8091EE02EF
:104170008C7F31F40E94DE0C8EEE92E00E944F0E96
:104180000E947507109245020E94320C8091EE0247
:1041900080FF05C060E0869586950E94631181E0EE
:1041A00080931F0289EA8093800089E080938100D8
:1041B0000E945C0660E082E00E94EE060E94971179
:1041C00060E082E00E94631180E091E09093ED0254
:1041D0008093EC0211E08091A802853009F06EC056
:1041E00000E483E0F82E90E1E92E22E1D22E8091C6
:1041F000A802853009F4D0C010929D020E941313CA
:104200000E944905109221028091200281110E9492
:1042100097110E944C11109246020E949C0B0E9422
:10422000980B0E94940B8FEF99E6A8E18150904083
:10423000A040E1F700C000000E94A60BBFEFE1EE36
:10424000F4E0B150E040F040E1F700C000000E940F
:10425000A30B2FEF81EE94E0215080409040E1F7D6
:1042600000C000000E94A00BAFEFB1EEE4E0A1504F
:10427000B040E040E1F700C000000E949C0BFFEF5F
:1042800021EE84E0F15020408040E1F700C00000C2
:104290000E94980B9FEFA1EEB4E09150A040B04077
:1042A000E1F700C000000E94940BEFEFF3EC29E06F
:1042B000E150F0402040E1F700C000000E94CB1127
:1042C000BBE26B2EB2E07B2E02E2802E02E0902E4B
:1042D0002FE232E0D401F30191918D912E173F0727
:1042E00009F4E2C09817C1F3A6E2EA2EA2E0FA2E82
:1042F00000E0D4015D904D01F30181913F018515EE
:1043000009F440C0382E3524D12CC12C44244394C8
:10431000832D842161F1252C2420AA24A394B12C7F
:104320000C2C02C0AA0CBB1C0A94E2F7D7018C919A
:1043300090E08A219B21892B99F4C9820A830E94EB
:10434000EA049C838B83B1E0BD8391E0211001C01E
:1043500090E09E8349815A816B817C818D8199DBBC
:10436000211005C0A094F7018081A822A082440CEE
:10437000FFEFCF1ADF0A24E0C216D10449F6F30199
:10438000319750820F5F8FEFE81AF80A043009F076
:10439000B0CF0E94CD048BC08091A802843009F474
:1043A00051C00E949C0B0E94980B0E94940B0E948B
:1043B0008810109245028091210281110DC0109346
:1043C00021028091EE02982F9170909320028E7FAF
:1043D0008093EE020E9443078091460281110DC036
:1043E0000E94150810920E018091520283708093F2
:1043F0000D010E94310EF0921201109346021092AC
:104400009702A8E1B0E00FB6F894A895A0936000D9
:104410000FBE0093600083B7817F846083BF83B742
:10442000816083BF7894889583B78E7F83BF0FB6F2
:10443000F894A89580916000886180936000109244
:1044400060000FBE0E94CB11E2E2F2E0A6E2B2E011
:1044500080E021912D9391E0211101C090E0892B02
:1044600022E0E632F207A9F7882309F4C0CE809152
:10447000A702882309F4BBCEE9BCD9BC09B400FE6D
:10448000FDCF8091D8008F7D8093D8008091E0008F
:1044900082608093E0008091E00081FDFCCF10926B
:1044A0009D020E941313A3CE98131ECF7EDB809132
:1044B0004502882309F442C080914402E091EE0253
:1044C000E695E695E81BE093400260EDE62E67E096
:1044D000F62E7BECC72E74E0D72E823051F4F0E03C
:1044E000ED50FE4FE491EE2EF12CE1E0CE2EE9E00E
:1044F000DE2E80914102882361F0109241020E94D9
:10450000EA0490933F0280933E021092430210927D
:1045100042020E94EA04E0913E02F0913F028E1BAB
:104520009F0B8F3F9F4750F4EE0EFF1EF0923F020D
:10453000E0923E028EE392E0F60109950E94881017
:1045400080913402882351F01092340280915C02F1
:1045500080935D0280915A0280935B0200E080911B
:104560003302081768F190E02CEFF22E33E0E32ECF
:104570004DEFD42E52E0C52E80915D0220915C0259
:10458000281709F425C3E82FF0E0E25AFD4F908187
:1045900097FBBB24B0F8092F0F778F5F8370809350
:1045A0005D0280915B028F5F80935B0297FD43C049
:1045B00009A3FAA20E94EA049CA38BA3EDA242C025
:1045C00061E0802F0E94F005F82E60E0802F0E94AD
:1045D000F005EF2DEE0F8E2B202F30E0D901AF5CD0
:1045E000BD4FEC919E2F9370891719F1EE0FEE0FCE
:1045F000E82BEC93EF70F0E0E85AFE4FC901815DC3
:104600009D4F7C018081D701DC90D80EB3E060E043
:10461000BD1524F0EDEFDE1624F461E0802F0E943A
:104620002F068D2DDD0C990B64E070E01AD4D701B4
:104630008C930F5F94CF09A3DAA20E94EA049CA393
:104640008BA3CDA21EA349A15AA16BA17CA18DA1D0
:104650009EA11FDA0FA3BB2081F0D8A60E94EA0416
:104660009AA789A7CBA61CA64FA158A569A57AA58C
:104670008BA59CA50EDA91E07FCFF8A60E94EA04F4
:104680009AA789A7EBA6EFCF10938F0202C31093CE
:10469000900207C31093910247C3109392024CC338
:1046A00080E2C82ED12CFE0131967F018091E80076
:1046B00085FD0AC08091E8008B778093E8000E9416
:1046C0009503882399F385C38091F100D7018D93D9
:1046D0007D01B1E0CB1AD10849F77BC3FF800E8181
:1046E000063008F000E000934B020E94CD04609376
:1046F0003A0270933B0280933C0290933D022F2D2F
:1047000030E0A8EEB3E0CDD3609336027093370269
:1047100080933802909339020887CE0101960E9457
:104720004A0359CD80914B028E83F7CFEFEFE80F0C
:10473000E53188F4F0E0E059F74DA6C31A828DE028
:104740008B83EBCF8A818330D1F040F4813079F0D4
:10475000823009F461C38FEF8983DFCF8430E9F0C1
:104760008630C9F71B821C821D8288E0DDCF0E9443
:10477000CD0490D36B837C838D839E83CECF2B819E
:10478000822F90E0FE013496245E8430910528F655
:10479000119201962813F9CFC0CF1B821C831D8272
:1047A0001E82BBCF8A818230C9F08530A1F680910C
:1047B000EE0280FF22C08E7F8093EE0210924502AF
:1047C0000E9443078091520291E089278093520210
:1047D0001092120180E00E946D069FCF8B819C8118
:1047E000AD81BE818DA79EA7AFA7B8ABBC01CD019F
:1047F00051D388E290E002D490CF0E949711E2CF8B
:104800004C816B818A810E94360F982789279827CF
:104810009E838D8382CF2D813E81322723273227AD
:104820004C816B818A810E941D0D77CF0E94450DBE
:1048300074CF9A81923009F070C0883009F43EC07C
:10484000893009F463C08B818330A1F190F4813009
:10485000C9F0823009F061CF8C81811124C0809130
:10486000EE028E7F8093EE02109245020E94430773
:1048700054CF843009F051CF20E04091F1026D8196
:104880008C810EC08C81A6E98A9FC00111246FEF34
:1048900070E0D3D2462F20E06091F0028091EF02C9
:1048A0000E94550C3ACF0E94971160E08C810E94C3
:1048B000631133CF8C818093F2022FCF8B818330B1
:1048C00009F160F4813099F0823009F026CF8091AF
:1048D000EE0280FF6CC08695869516C0843009F084
:1048E0001CCF8091EF028C838091F00293C2809163
:1048F000F102BFEF8B9FC001112466E970E09DD2E9
:104900006C830BCF8091F2028C8307CF0E947507D6
:104910008EEE92E00E94340C00CF933009F01BCF52
:104920008830B1F1893009F457C08B81833061F14F
:1049300058F4813091F0823009F0EFCE8C818111F2
:104940001CC00E945006E9CE843009F0E6CE8C816E
:1049500020E0409155026D810CC04C8126E9429FB8
:10496000040E40E0411D11248091530220E060912B
:10497000540290E00E949B06D0CE0E945C0660E04C
:104980008C810E94EE06C9CE8C818093560222CF84
:104990008B818330F1F068F48130A1F0823009F02E
:1049A000BCCE80915202982F937009F094CF80E092
:1049B000ABCF843009F0B1CE809153028C838091CB
:1049C000540228C280915502EFEF8E9FC00111243E
:1049D00094CF8091560298CF48E050E067E170E0B4
:1049E00082E592E0FCD210924C0297CE80E18A835D
:1049F00094CE83E08A8387E3A3CE8A819B81982724
:104A0000892798274C80512C712C612C4C01B12C9A
:104A1000A12C1C01F9EC2F0E311CCE0101966C016A
:104A2000F12CE12CC1018E0D9F1DA70170E060E00B
:104A3000441555056605770508F06FCE480D591DDC
:104A40006A1D7B1D473353406105710550F4B5D293
:104A5000F6018483BFEFEB1AFB0AEFEFCE1ADE0AF2
:104A6000E1CFD60114961C92F5CFCA80DB80DC24FE
:104A7000CD24DC248C80912CB12CA12C2601712C0E
:104A8000612CF9ECCF0ED11CF12CE12CC6018E0D5E
:104A90009F1DA70170E060E0481559056A057B0578
:104AA00008F03BCE440D551D661D771D473353401E
:104AB0006105710540F4E1E0F0E0EC0FFD1FEE0D43
:104AC000FF1D64819BD28FEFE81AF80ADFCF0E94A6
:104AD000041023CE84E08BCF4C80512C712C612CA0
:104AE000CA80DB80DC24CD24DC24F12CE12CDE0127
:104AF00011961D01812C912C5401C60189968414B4
:104B00009504A604B70408F008CEB0E8CB16D1048B
:104B1000E104F10488F451D2F1018483BFEF8B1AD0
:104B20009B0AAB0ABB0AEFEF2E1A3E0AFFEFCF1A21
:104B3000DF0AEF0AFF0AE1CFD10114961C92EECFF3
:104B40008C80912CB12CA12CCA80DB80DC24CD245C
:104B5000DC24F12CE12C412C512C3201C601899628
:104B6000481459046A047B0408F0D7CD20E8C21623
:104B7000D104E104F10440F4E1E0F0E0EC0FFD1FAA
:104B8000E40DF51D64813AD28FEF481A580A680A7D
:104B9000780A9FEFC91AD90AE90AF90ADFCF41E07A
:104BA0008C81811101C040E06B818A810E94FD0EE1
:104BB0002CCE2D813E8132272327322741E08C8164
:104BC000811101C040E06B818A810E94EB0CA5CD70
:104BD00091110E94CD0486E0EDE8F2E0DE0111962D
:104BE00001900D928A95E1F7A0908E02C0908F02FD
:104BF00000919002B0909102D090920210928F0298
:104C0000109290021092910210929202802F8C29A1
:104C100009F447C0E0908B02F0908C020E94EA04F5
:104C20009C012E193F0990918602992309F400C135
:104C300025313105B0F19F3F19F09F5F90938602B7
:104C4000CC2059F00E94AA059FEF1C140CF491E0AF
:104C5000899F802D112480938F02002359F00E9498
:104C6000AA0591E010160CF09FEF899F802D11246A
:104C70008093900280918F02882399F0F0909002A7
:104C8000FF2079F00E94CA05882309F4FDCC8093A7
:104C90008F028F2D0E94CA05882309F4F8CC8093D7
:104CA00090028D2D8B2909F447C0E0908902F09085
:104CB0008A020E94EA049C012E193F099091870202
:104CC000992309F4B0C021353105B0F19F3F19F0A7
:104CD0009F5F90938702BB2059F00E9488059FEF49
:104CE0001B140CF491E0899F802D11248093910274
:104CF000DD2059F00E94880591E01D140CF09FEF13
:104D0000899F802D112480939202809191028823A3
:104D100099F0F0909202FF2079F00E94CA05882352
:104D200009F4B8CC809391028F2D0E94CA05882384
:104D300009F4B3CC8093920280918E028A1119C03B
:104D400080918F02882311F08C1113C02091900262
:104D5000222311F002130DC090919202992311F0B9
:104D6000D91207C030919102311103C0822B892BD7
:104D700011F00E946105AA82CB820C83BD82DE8283
:104D800086E0FE013196ADE8B2E001900D928A9581
:104D9000E1F70E94490590913502891721F080932F
:104DA00035020E94CD048091A802843009F013CA14
:104DB00083E08093E9008091E80082FF0CCA809133
:104DC000E80090E085FF06C00E949503882309F45F
:104DD00067CC91E08091E8008B778093E80099237D
:104DE00009F4F9C989818E3F09F0A0CC8A81873501
:104DF00009F0B1CC8B818C3409F0ADCC8C81813041
:104E000009F0A9CC8D81813009F468CC823009F495
:104E100089CC8FEF8D8381CC88E290E0CED01B824D
:104E20001C821D8281CC2B30310508F051CF84CFFC
:104E30002B30310508F001CF34CFAA1BBB1B51E149
:104E400007C0AA1FBB1FA617B70710F0A61BB70BFA
:104E5000881F991F5A95A9F780959095BC01CD019F
:104E6000089597FB072E16F4009406D077FD08D01E
:104E7000E4DF07FC05D03EF4909581959F4F08959F
:104E8000709561957F4F0895EE0FFF1F0590F49187
:104E9000E02D09946927962769277827872778279F
:104EA0000895A29FB001B39FC001A39F700D811D03
:104EB0001124911DB29F700D811D1124911D089523
:104EC0002F923F924F925F926F927F928F929F921A
:104ED000AF92BF92CF92DF92EF92FF920F931F9308
:104EE000CF93DF93CDB7DEB7CA1BDB0B0FB6F894B9
:104EF000DEBF0FBECDBF09942A88398848885F84F9
:104F00006E847D848C849B84AA84B984C884DF8069
:104F1000EE80FD800C811B81AA81B981CE0FD11D4D
:104F20000FB6F894DEBF0FBECDBFED010895002E81
:104F3000083090F0982F872F762F652F542F432F0E
:104F4000322F22270850F4CF220F331F441F551F42
:104F5000661F771F881F991F0A95B2F7002D0895C5
:104F600097FD1094002E083098F00850232F342F0E
:104F7000452F562F672F782F892F912DF4CF159419
:104F80009795879577956795579547953795279581
:104F90000A95AAF71124002D0895DC01CB01FC012C
:104FA000F999FECF06C0F2BDE1BDF89A319600B482
:104FB0000D9241505040B8F70895F999FECF92BD37
:104FC00081BDF89A992780B50895A6E1B0E044E044
:104FD00050E0E5CFA8E1B0E042E050E0E0CFDC01F6
:104FE000A40FB51F4150504040F0CB01840F951FD6
:104FF0002E9105D041505040D8F70895262FF999A9
:10500000FECF92BD81BDF89A019700B4021639F027
:105010001FBA20BD0FB6F894FA9AF99A0FBE0895F8
:105020000396272FECDFEADF252FE9DF242FE7CFD8
:105030000196272FE4DFE2CFFC014150504030F0D1
:1050400001900616D1F73197CF0108958827992747
:105050000895FB01DC0104C08D910190801921F4B9
:1050600041505040C8F7881B990B0895F894FFCF22
:105070001A1442149514421495147514A714951417
:10508000A315B015AD17CE17D317D817DD17E41732
:10509000EB17F21765187D18811885188A188F1874
:1050A000941899189E18A318A818BB18C118C418EA
:1050B000CD18D218D718DC18E118E618EB18F0183C
:1050C000F518FA18FF180419A219A219D719D71937
:1050D0005C1A761AFC19FC197B1AE81AF61AF61AE9
:1050E0009E23A223D22300240B241624192419243E
:1050F0001924AB23AB23F624F924FD243525672599
:0A5100006A256C25A025CF25D925CE
:10510A00F604EE0DCC04E90DE40D040E01FFFF00D8
:10511A00FF000300000100D5B478E200E900EA00CC
:10512A00B500B600B700CD008301CC008A01920118
:10513A0094012102230224022502260227022A02BE
:10514A00B300B4006F0070009F01CB019F02A00260
:10515A00F1F4F5F6346667C600FF0100010000FFAE
:10516A00FF0000010001FF000001020202020031FB
:10517A0031295A1B750AFF0A0BFF090807060203A1
:10518A000405FF0100FF7A406740542D672D852DE5
:10519A00982D981A7A1A671A541A67077A07040414
:1051AA0004040404040404040404FF009430963143
:1051BA0044227B49012701AC00A904C204E204008D
:00000001FF
